:100000000C943A000C9457000C9457000C94570031
:100010000C9457000C9457000C9457000C94570004
:100020000C9457000C9457000C9457000C945700F4
:100030000C9457000C9457000C9457000C945700E4
:100040000C9457000C9457000C9457000C945700D4
:100050000C9457000C9457000C9457000C945700C4
:100060000C9457000C9457000C9457000C945700B4
:100070000C94570011241FBECFEFD4E0DEBFCDBFDC
:1000800011E0A0E0B1E0EEE6FBE002C005900D92C9
:10009000A835B107D9F721E0A8E5B1E001C01D926C
:1000A000AF36B207E1F70E94E3040C94B5050C9457
:1000B0000000E1E6F0E080E880831082A89584B734
:1000C000877F84BFE0E6F0E08081886180831082D2
:1000D00008951092800084E0809381001092850042
:1000E0001092840008958091840090918500089575
:1000F0009C018091840090918500AC01421B530BC0
:10010000483E5340B0F70895209184003091850017
:10011000820F931F0C947800853098F4673088F430
:1001200021E030E001C0220F6A95EAF7E82FF0E005
:10013000E75AFE4F822F8095908189234111822BAF
:1001400080830895853080F4673070F4E82FF0E004
:10015000E75AFE4F81E090E001C0880F6A95EAF708
:100160009081982381E009F480E00895609158011E
:10017000E62FF0E0E75AFE4F80810E940301809154
:1001800058018F5F853018F48093580108951092BC
:1001900058010895E9E5F1E010821182128213827C
:1001A000148208950E94E1000C94CA009C01FC0195
:1001B000FF2784A1832B84A385A1832B85A381E0C2
:1001C0000895CF93DF93CFE3D1E0899199910E9475
:1001D000D60081E0CD34D807C1F783E090E40E94D7
:1001E000D60080E090E80E94D60083E090E10E9473
:1001F000D60083E090E80E94D60083E090E2DF9191
:10020000CF910C94D600E0915E01F0E0EE0FFF1F5D
:10021000EB5CFE4F20813181F901FF2795A1932BE3
:1002200095A3AFE3B1E02D913D91F901FF2780FF48
:100230001CC025A1932F9095922395A3869591E0BC
:10024000AD34B90781F7E62FF0E0EE0FFF1FEB5C4E
:10025000FE4F20813181F901FF2795A1832F8095E1
:10026000892385A360935E01089595A1932BE5CF23
:100270009C0163307105A1F040F461307105E1F03B
:100280006230710511F180E0089564307105D9F78D
:10029000F901FF2784A1832B84A385A1832B09C0A7
:1002A000F901FF2784A1832B84A395A1832F809537
:1002B000892385A381E00895F901FF2794A1832F65
:1002C0008095982394A395A1F3CFF901FF2794A1DA
:1002D000832F80958923E0CFE82FF0E0EE0FFF1FFA
:1002E000E15AFE4F8081882329F0818191E089279E
:1002F0008170089580E0FCCFE82FF0E0EE0FFF1F43
:10030000E15AFE4F8081811103C08181817008957F
:1003100080E0FCCFE82FF0E0EE0FFF1FE15AFE4F28
:1003200080810895E82FF0E0EE0FFF1FE15AFE4FA5
:10033000908181E0892708957F928F929F92AF925A
:10034000BF92CF92DF92EF92FF920F931F93CF93C2
:10035000DF93CFE5D1E05DE4C52E51E0D52E66E018
:10036000762E88818983F601019111916F015801E0
:10037000BB24F50124A1E12EFF2485A190E08E216C
:100380009F2130E02E213F21232BB1F133E0832E3A
:10039000912C892B19F094E0892E912C64E070E067
:1003A000C8010E94380162E070E0C8010E94380173
:1003B000872D8A95F1F7F50183A190E0E822F922D3
:1003C00081E0EF2809F080E08883B401C8010E9431
:1003D00038012296F1E0C936DF0719F6DF91CF9197
:1003E0001F910F91FF90EF90DF90CF90BF90AF9053
:1003F0009F908F907F90089588248394912C892BCF
:1004000069F282E0882E912CC9CF0895FC01892BD6
:1004100081F08381681B67FD09C0062E000C770BF5
:10042000948181E09617170609F00CF480E0817042
:10043000089580E00895FC01A62F622F892B69F1B1
:100440008181481750F59281291738F59381A91BAE
:10045000A7FD23C00A2E000CBB0B94819A171B0624
:10046000E1F0DCF00E943705480F858190E0BD0186
:100470000E9440059C01942F969596959695E20FC3
:10048000F31FE90FF11D868190E0477002C095953A
:1004900087954A95E2F78170089580E00895CF939B
:1004A000DF93EC010E9469009E0150E040E062E1B0
:1004B0007AE780E090E00E94650530936C0120931C
:1004C0006B01DF91CF9108958091690190916A014C
:1004D0000E9478008091690190916A0120916B01DE
:1004E00030916C01820F931F90936A018093690190
:1004F0000895692F0C94A20041E0611101C040E011
:10050000692F0C948C000C947C025F926F927F9206
:100510008F929F92AF92BF92CF92DF92EF92FF9213
:100520000F931F93CF93DF93862E772E942E682EF2
:10053000592EB62EA72E062E000C770BE82F082E6C
:10054000000CFF0B8B010E1B1F0B272D072C000C23
:10055000330B492F092E000C550BE901C41BD50B99
:1005600017FF59C0DD24DA94D7FD02C0DD24D394EF
:100570008F01061B170BCC24CA94D7FF03C0EA01D6
:10058000C21BD30B0C171D076CF1780117FF03C0BA
:100590008FEFE81AF80AF594E794A92E681014C0B2
:1005A000692D8B2D9A2DDF91CF911F910F91FF9087
:1005B000EF90DF90CF90BF90AF909F908F907F9003
:1005C0006F905F900C947C02692D862D9A2D0E946D
:1005D0007C02EC1AFD0AF7FE03C0E00EF11EAD0C22
:1005E0006C0CDCCF7E01D7FF03C09FEFE91AF90A3C
:1005F000F594E794B82E571499F2692D8B2D952D0B
:100600000E947C02E01AF10AF7FE03C0EC0EFD1E08
:10061000BC0C5D0CF0CFCC24C394DD24DA94D7FD60
:10062000AECFDD24D394AECFFF920F931F93CF9321
:10063000DF93D82FF92E162FC72F042F792F0E9462
:100640008502402F6D2F7C2F8D2F9F2D0E948502BC
:10065000402F612F7C2F812F9F2D0E948502402FDC
:10066000612F7C2F8D2F9C2FDF91CF911F910F91A8
:10067000FF900C9485020E94CA00E4E0F1E0118A28
:1006800014860895DF92EF92FF920F931F93CF93FA
:10069000DF93D82E7B01C62F0F2D809106019091FC
:1006A0000701D0E0019751F1CE2DCD0FE0910C0163
:1006B000F0910D018181D81708F45CC0D0E0E09181
:1006C0000C01F0910D018281D81708F455C0CF5F5D
:1006D00027C0212F4D2F6D2D0E941B02682F8E2DBC
:1006E000810F902F0E947C021F5F80910C019091DE
:1006F0000D01FC012281121760F3DF5F0F2D0D1B2E
:10070000E0910C01F0910D018181D81798F0D0E0B3
:10071000E0910C01F0910D018281D81768F0015031
:100720008C2F902FDF91CF911F910F91FF90EF9021
:10073000DF90089510E0D9CF60E08E2D8D0F902FBF
:100740000E947C02DF5FE4CF212F4D2F6D2D0E9490
:100750001B02682F8C2F9F2D910F0E947C021F5F20
:1007600080910C0190910D01FC012281121760F320
:10077000DF5F9ACF10E0F4CF60E08C2F9F2D9D0FAC
:100780000E947C02DF5F9BCF1F93CF93DF93EC012E
:1007900010E08991882341F00E944203BC011F5F51
:1007A000853014F477FFF5CF812FDF91CF911F9122
:1007B00008950F931F93CF93DF93EC01362F272FCC
:1007C00010921001409311011092140100910C013C
:1007D00010910D010115110509F446C0F801818140
:1007E00060910A0170910B0190E00E944005BC01EC
:1007F00080910E0190910F010E945105CB016AE09A
:1008000070E00E9440059093130180931201309391
:1008100008012093090140E250E0BE0185E191E02A
:100820000E94A60580910401909105010197E1F4D1
:10083000FE0101900020E9F73197BF016C1B7D0B91
:10084000F80181818F5F0E94370581502091060158
:100850003091070195E02130310509F497E09817B0
:1008600018F48EEF80931401DF91CF911F910F91B7
:100870000895209106013091070170E02130310583
:1008800009F476E04FEF60E00C94D90390E0909388
:100890000B0180930A010895909305018093040150
:1008A00008959093070180930601089590930D0198
:1008B00080930C01089580916D0190916E010196D5
:1008C00090936E0180936D0120911201309113017C
:1008D0008217930708F441C010926E0110926D01C7
:1008E000E0911001F0E0EC5FFE4F8189811109C0B9
:1008F00080911101823088F1815080931101109212
:1009000010018091100190E0FC01EC5FFE4F218905
:10091000222319F140910401509105012091140105
:1009200041155105E1F04130510551F1809114011B
:100930008F5F80931401082E000C990BE0910C013D
:10094000F0910D012181281719063CF41092140131
:10095000809110018F5F809310010C94B6002111DB
:10096000E5CF60910801709109018B5E9E4F0E9456
:10097000C403909110019150980F90931001D6CF1D
:1009800060910801709109014091060150910701A1
:100990004130510531F4720F8B5E9E4F0E94C403AB
:1009A000C5CF621BF9CFCF93DF93C4E0D1E09B8723
:1009B0008A870E94D20084E190E09F838E83DF913A
:1009C000CF910C943B030E9459000E9405028AEFCC
:1009D00090E00E944F028AEF90E00E94D3040E94B0
:1009E00064020E949C0183E00E946C01882339F01C
:1009F0008091030118161CF481508093030181E05B
:100A00000E946C01882339F08091030186301CF428
:100A10008F5F8093030182E00E946C01882339F08C
:100A20008091020184301CF48F5F8093020180E08A
:100A30000E946C01882339F08091020118161CF481
:100A40008150809302018091020190910301909363
:100A50000001809301010E943B0361E0809100014D
:100A6000909101010E947C020E945B04B8CF002497
:100A700080FD060E660F11F08695D1F7802D089542
:100A80000024552704C0080E591F880F991F00978E
:100A900029F076956795B8F37105B9F7802D952FF4
:100AA0000895AA1BBB1B51E107C0AA1FBB1FA617B5
:100AB000B70710F0A61BB70B881F991F5A95A9F707
:100AC00080959095BC01CD010895052E97FB1EF4ED
:100AD00000940E947C0557FD07D00E94840507FC06
:100AE00003D04EF40C947C0550954095309521959B
:100AF0003F4F4F4F5F4F089590958095709561954A
:100B00007F4F8F4F9F4F0895A1E21A2EAA1BBB1B48
:100B1000FD010DC0AA1FBB1FEE1FFF1FA217B307C9
:100B2000E407F50720F0A21BB30BE40BF50B661FDF
:100B3000771F881F991F1A9469F7609570958095A3
:100B400090959B01AC01BD01CF010895FB01DC0133
:100B50004150504048F001900D920020C9F701C06B
:0E0B60001D9241505040E0F70895F894FFCFE9
:100B6E000206060200000000000014000000000053
:100B7E000000000000000000000000000000000067
:100B8E000000000000000000000000000000000057
:100B9E0000000000000340008003100380032000CB
:100BAE004000200010000800040002000103800332
:080BBE00400320008003100039
:00000001FF
