:100000000C943A000C9457000C9457000C94570031
:100010000C9457000C9457000C9457000C94570004
:100020000C9457000C9457000C9457000C945700F4
:100030000C9457000C9457000C9457000C945700E4
:100040000C9457000C9457000C9457000C945700D4
:100050000C9457000C9457000C9457000C945700C4
:100060000C9457000C9457000C9457000C945700B4
:100070000C94570011241FBECFEFD4E0DEBFCDBFDC
:1000800013E0A0E0B1E0ECE4F1E102C005900D92D4
:10009000A834B107D9F723E0A8E4B3E001C01D926A
:1000A000A736B207E1F70E94F2050C94A4080C945D
:1000B0000000E1E6F0E080E880831082A89584B734
:1000C000877F84BFE0E6F0E08081886180831082D2
:1000D00008951092800084E0809381001092850042
:1000E0001092840008958091840090918500089575
:1000F000AC0180918400909185009C01241B350BFC
:10010000283E3340B0F70895209184003091850057
:10011000820F931F0C947800853098F4673088F430
:1001200021E030E001C0220F6A95EAF7E82FF0E005
:10013000E75BFC4F922F9095808189234111822BA0
:1001400080830895853080F4673070F421E030E0DA
:1001500001C0220F6A95EAF7E82FF0E0E75BFC4F59
:100160008081282381E009F480E0089560914803AC
:10017000E62FF0E0E75BFC4F80810E940401809154
:1001800048038F5F853018F48093480308951092D8
:1001900048030895E9E4F3E0108211821282138289
:1001A000148208950E94E2000C94CA009C01FC0194
:1001B000FF2784A1832B84A395A1892F832B85A35B
:1001C00081E00895CF93DF93C6E2D3E089919991BE
:1001D0000E94D60083E0C433D807C1F783E090E4DF
:1001E0000E94D60080E090E80E94D60083E090E173
:1001F0000E94D60083E090E80E94D60083E090E25F
:10020000DF91CF910C94D600E0914E03F0E0EE0F19
:10021000FF1FE45EFC4F20813181F901FF2795A18A
:10022000932B95A3E6E2F3E097E020813181D90199
:10023000BB2795962C91959780FF03C0309523237B
:1002400001C0232B95962C9386959150329691114F
:10025000ECCFE62FF0E0EE0FFF1FE45EFC4F808155
:100260009181FC01FF2785A19095892385A3609347
:100270004E0308956230710519F170F46130710513
:1002800059F5FC01FF2724A1392F3095922F932394
:1002900094A385A183231DC06330710541F06430B0
:1002A0007105D1F4FC01FF2784A1892B0FC0FC014B
:1002B000FF2784A1892B84A385A19095892309C058
:1002C000FC01FF2784A1292F2095822384A385A1E7
:1002D000892B85A381E0089580E00895E82FF0E060
:1002E000EE0FFF1FE15BFC4F8081882321F091819D
:1002F00081E0892702C080E090E081700895E82FB6
:10030000F0E0EE0FFF1FE15BFC4F8081811102C026
:10031000818102C080E090E081700895E82FF0E0D4
:10032000EE0FFF1FE15BFC4F80810895E82FF0E0A6
:10033000EE0FFF1FE15BFC4F908181E0892708955C
:100340007F928F929F92AF92BF92CF92DF92EF9265
:10035000FF920F931F93CF93DF93CFE4D3E054E347
:10036000C52E53E0D52E66E0762E88818983F6016E
:10037000019111916F015801BB24F50124A1E12ED7
:10038000FF2485A190E08E219F2130E02E213F2186
:10039000232B31F0892B51F433E0832E912C0DC0A7
:1003A000892B41F488248394912C07C094E0892EF2
:1003B000912C03C082E0882E912C64E070E0C8018B
:1003C0000E943A0162E070E0C8010E943A01872D64
:1003D0008A95F1F7F50183A190E0E822F92281E006
:1003E000EF2809F080E08883B401C8010E943A0137
:1003F0002296F3E0C935DF0709F0B7CFDF91CF913F
:100400001F910F91FF90EF90DF90CF90BF90AF9032
:100410009F908F907F9008950895009789F0FC0138
:100420002381621B67FD09C0062E000C770B248117
:1004300030E081E0621773070CF080E0817008956E
:1004400080E00895CF93DF93FC01892B79F18181BE
:10045000481760F59281291748F59381A62FA91BAB
:10046000A7FD24C00A2E000CBB0BC481D0E0AC1742
:10047000BD07E4F4622F0E947A06480F858190E060
:10048000BD010E9483060696242F26952695269563
:10049000E80FF91FE20FF11D808190E0477002C064
:1004A000959587954A95E2F7817001C080E0DF91CC
:1004B000CF910895CF93DF93EC010E9469009E01D4
:1004C00040E050E062E17AE780E090E00E94BC0604
:1004D00030935C0320935B03DF91CF91089580916B
:1004E000590390915A030E9478002091590330914A
:1004F0005A0380915B0390915C03820F931F90934A
:100500005A03809359030895692F0C94A20041E087
:10051000611101C040E0692F0C948C000C9487029B
:100520005F926F927F928F929F92AF92BF92CF9283
:10053000DF92EF92FF920F931F93CF93DF93562E8C
:10054000872E942E5C01E62EF72EC62F660FDD0B4C
:10055000C81BD10987FDD395072F770F110B091BF6
:10056000110997FD1395D7FF03C077247A9402C031
:100570007724739417FF03C066246A9402C066242C
:100580006394D7FF03C0D195C195D10917FF03C06C
:10059000119501951109C017D107A4F06E01D594EA
:1005A000C794F92EA51411F1692D8A2D9F2D0E9453
:1005B0008702C01AD10AD7FE03C0CC0EDD1EF60C8E
:1005C000A70CF0CF6801D594C794E82EB81471F049
:1005D000692D8E2D9B2D0E948702CC1ADD0AD7FE35
:1005E00003C0C00ED11EE70CB60CF0CF692DC701B9
:1005F000DF91CF911F910F91FF90EF90DF90CF90FF
:10060000BF90AF909F908F907F906F905F900C9471
:100610008702FF920F931F93CF93DF93D82FF92E6A
:10062000162FC72F042F792F0E949002402F6D2F75
:100630007C2F8D2F9F2D0E949002402F612F7C2FA9
:10064000812F9F2D0E949002402F612F7C2F8D2F94
:100650009C2F0E949002DF91CF911F910F91FF90EC
:1006600008950E94CA00E0E0F1E0118A148608951E
:10067000DF92EF92FF920F931F93CF93DF93D82EC9
:100680007B01162F0F2D8091020190910301D0E084
:10069000019799F50F2D0D1BE0910801F0910901CB
:1006A0008181C0E0D817B8F48091080190910901C8
:1006B000FC012281C21768F42C2F4D2F6D2D0E9452
:1006C0002202682F8E2D8C0F902F0E948702CF5F01
:1006D000EBCFDF5FDFCFE0910801F091090182816C
:1006E000C81740F460E08E2D8C0F902F0E94870277
:1006F000CF5FF1CF015030C0DF5F1E2D1D0FE091A5
:100700000801F09109018181C0E0D817A8F4809117
:10071000080190910901FC012281C21768F72C2F72
:100720004D2F6D2D0E942202682F812F9F2D9C0F2F
:100730000E948702CF5FEBCFE0910801F0910901A1
:100740008281C81740F460E0812F9F2D9C0F0E948A
:100750008702CF5FF1CF1F5F812F902FDF91CF9165
:100760001F910F91FF90EF90DF9008950F931F93CB
:10077000CF938C01C0E0F80181918F01882341F073
:100780000E943803BC01CF5F853014F477FFF3CFAC
:100790008C2FCF911F910F9108950F931F93CF939B
:1007A000DF9310920C0140930D0110921001009103
:1007B0000801109109010115110509F449C09B01B7
:1007C000EC01F8018181609106017091070190E0D0
:1007D0000E948306BC0180910A0190910B010E9446
:1007E0009406CB016AE070E00E94830690930F01AB
:1007F00080930E01309305012093040140E250E004
:10080000BE0181E191E00E947C08809100019091FD
:1008100001010197E9F4FE0101900020E9F7319709
:10082000BF016C1B7D0BF80181818F5F0E947A06EE
:10083000815020910201309103012130310511F0E6
:1008400095E001C097E0981718F48EEF809310019F
:10085000DF91CF911F910F91089520910201309166
:1008600003012130310511F070E001C076E04FEF57
:1008700060E00E94CD03089590E09093070180937B
:1008800006010895909301018093000108959093CB
:100890000301809302010895909309018093080158
:1008A000089580915D0390915E03019690935E039D
:1008B00080935D0320910E0130910F018217930701
:1008C00008F469C010925E0310925D03E0910C0180
:1008D000F0E0E050FF4F818981110AC080910D0145
:1008E000823008F458C0815080930D0110920C01A1
:1008F00080910C0190E0FC01E050FF4F2189222300
:1009000009F449C04091000150910101209110016A
:100910004115510521F04130510599F024C02111B4
:1009200022C060910401709105018F5E9E4F0E946C
:10093000B60390E0019790910C01890F80930C0110
:1009400012C0609104017091050140910201509123
:1009500003014130510511F4720F01C0621B8F5E1B
:100960009E4F0E94B603809110018F5F809310010B
:10097000082E000C990BE0910801F09109012181EA
:1009800030E0281739073CF41092100180910C01D7
:100990008F5F80930C010C94B600CF93DF93C0E07F
:1009A000D1E09B878A870E94D20084E190E09F83F8
:1009B0008E83DF91CF910C943103FC012485358522
:1009C00081E090E0821793074CF44281461303C004
:1009D0004381471729F001963296F4CF80E00895BD
:1009E00081E008950F931F93CF93DF93EC018A89E1
:1009F000811136C0088119818889998981309105D2
:100A000051F038F08230910541F0039739F40150EC
:100A100005C0115003C00F5F01C01F5F053010F407
:100A2000173018F081E08A8B1BC0B801CE010E94FC
:100A3000DD048111F7CF8C859D85FC01EE0FFF1F32
:100A4000EC0FFD1F01973297181619063CF4DF01D1
:100A500012972D913C9131832083F4CF0883198321
:100A6000DF91CF911F910F910895FC0181E090E0FB
:100A70009587848786E090E09787868782E08083E9
:100A800086E08183128A61E0808191810E948702E1
:100A90000C945104FC01248535852630310524F45D
:100AA0002F5F3F4F358724870895CF93DF93EC0165
:100AB00083E00E946E01882349F0888999898D7F9F
:100AC000019721F083E090E0998B888B81E00E9470
:100AD0006E01882349F0888999898D7F019721F0DB
:100AE00081E090E0998B888B80E00E946E018823E2
:100AF00039F0888999898D7F892B11F0198A188A94
:100B000082E00E946E01882349F0888999898D7F4F
:100B1000892B21F082E090E0998B888BDF91CF9137
:100B20000895292F861306C081E090E0271721F051
:100B300080E0089580E090E00895CF93DF930E94D5
:100B40006C08D82FC92F0E946C08FC018D2F9C2F98
:100B500065E070E00E94A806282FCF0167E070E0F2
:100B60000E94A806982F822FDF91CF9108950F93AE
:100B70001F93CF93DF938C01EB010E949D05998316
:100B80008883F8012485358590E080E00AC0508193
:100B90004881541304C051814981541771F301965F
:100BA0003296821793079CF3DF91CF911F910F919B
:100BB000089561E0FC01808191810C948702FC0121
:100BC0000FB6F8946091630370916403809165039C
:100BD000909166030FBE309721F06083718382830A
:100BE00093830895CF93DF9300D0CDB7DEB783E131
:100BF00090E00E94FD068C0180E090E00E94DF05FD
:100C0000CB010E9471080E94590084EF91E00E947C
:100C1000CD040E940C0284EF91E00E945A02C801A8
:100C20000E943505BE016F5F7F4FC8010E94B70566
:100C3000E12CF12C0E946F020E94A001F801828930
:100C4000811144C00E943103C12CD12CF80184854C
:100C50009585C816D90674F4F601EE0FFF1FE00F54
:100C6000F11F61E0808191810E948702FFEFCF1A1E
:100C7000DF0AECCF0E945104FFEFEF1AFF0ACE010A
:100C800001960E94D90587EAE816F104CCF0F80134
:100C90009081898198130DC091818A81981309C030
:100CA000BE016F5F7F4FC8010E94B705C8010E9457
:100CB0004A050E943103C8010E94F204E12CF12C84
:100CC000C8010E9455050E945104B4CF8BE391E006
:100CD0000E944C048AE00E943C0481E090E00E9463
:100CE00042048EE393E00E942D040E946F020E9452
:100CF0005104FBCF002480FD060E660F11F086958F
:100D0000D1F7802D08950024552704C0080E591FDF
:100D1000880F991F009729F076956795B8F37105AC
:100D2000B9F7802D952F0895AA1BBB1B51E107C071
:100D3000AA1FBB1FA617B70710F0A61BB70B881F6B
:100D4000991F5A95A9F780959095BC01CD010895FA
:100D500097FB072E16F4009407D077FD09D00E9468
:100D6000940607FC05D03EF4909581959F4F089519
:100D7000709561957F4F0895052E97FB1EF40094A2
:100D80000E94D30657FD07D00E94DB0607FC03D064
:100D90004EF40C94D30650954095309521953F4FD5
:100DA0004F4F5F4F089590958095709561957F4F57
:100DB0008F4F9F4F0895A1E21A2EAA1BBB1BFD0166
:100DC0000DC0AA1FBB1FEE1FFF1FA217B307E4072A
:100DD000F50720F0A21BB30BE40BF50B661F771F82
:100DE000881F991F1A9469F7609570958095909562
:100DF0009B01AC01BD01CF0108950F931F93CF93C9
:100E0000DF938230910510F482E090E0E09161037D
:100E1000F091620320E030E0A0E0B0E0309719F1FB
:100E2000408151810281138148175907C8F0841706
:100E3000950769F4109731F012960C931297139658
:100E40001C9327C0009361031093620322C02115F5
:100E5000310519F04217530718F49A01BD01EF014B
:100E6000DF01F801DBCF21153105F9F0281B390B23
:100E70002430310580F48A819B816115710521F050
:100E8000FB019383828304C0909362038093610388
:100E9000FE01329644C0FE01E20FF31F819391934D
:100EA00022503109398328833AC020915F03309161
:100EB0006003232B41F420913301309134013093AE
:100EC000600320935F03209131013091320121159D
:100ED000310541F42DB73EB74091350150913601AF
:100EE000241B350BE0915F03F0916003E217F307D9
:100EF000A0F42E1B3F0B2817390778F0AC014E5F8A
:100F00005F4F2417350748F04E0F5F1F5093600363
:100F100040935F038193919302C0E0E0F0E0CF0142
:100F2000DF91CF911F910F910895CF93DF93009799
:100F300009F481C0FC01329713821282A0916103EF
:100F4000B0916203109781F420813181820F931F49
:100F500020915F03309160032817390751F5F09312
:100F60006003E0935F0367C0ED0120E030E0CE173F
:100F7000DF0740F44A815B819E0141155105F1F084
:100F8000EA01F5CFD383C28340815181840F951F3D
:100F9000C817D90759F488819981840F951F029643
:100FA000918380838A819B8193838283211531057C
:100FB00029F4F0936203E09361033DC0E901FB83F0
:100FC000EA8349915991C40FD51FEC17FD0761F4CD
:100FD00080819181840F951F0296E901998388830E
:100FE000828193819B838A83E0E0F0E012968D9169
:100FF0009C911397009719F0FD01DC01F7CF8D91BB
:101000009C9111979D012E5F3F4F820F931F20915E
:101010005F03309160032817390769F4309729F48A
:10102000109262031092610302C013821282B09385
:101030006003A0935F03DF91CF9108958F929F92F9
:10104000AF92BF92CF92DF92EF92FF92CF93DF9356
:10105000EC01688179818A819B8161157105810527
:10106000910521F464E279ED8BE597E02DE133EF12
:1010700041E050E00E94BC0649015A0127EA31E4F0
:1010800040E050E00E948B086B017C012CEE34EFB5
:101090004FEF5FEFC501B4010E948B08DC01CB016B
:1010A0008C0D9D1DAE1DBF1DB7FF03C00197A1098B
:1010B000B04888839983AA83BB839F77DF91CF91C0
:1010C000FF90EF90DF90CF90BF90AF909F908F9068
:1010D00008950E941E08089587E391E00E941E086B
:1010E0000895A0E0B0E08093370190933801A09379
:1010F0003901B0933A010895FB01DC0141505040A1
:1011000048F001900D920020C9F701C01D92415096
:101110005040E0F70895EE27FF27AA27BB2708C015
:10112000A20FB31FE41FF51F220F331F441F551FCB
:10113000969587957795679598F37040A9F70097EE
:0C11400099F7BD01CF010895F894FFCF8E
:10114C00000000000000140000000000000000007F
:10115C000000000000000000000000000000000083
:10116C000000000000000000000000000000000073
:10117C000000006703200001000000010507205F4C
:10118C00050000000000C6186380014A2900000019
:10119C004A7DF59502C417471F01632222320626A9
:1011AC00155193058608000000880821080282204A
:1011BC00848800805457090080904F08000000601C
:1011CC00880000800F00000000008C010022220229
:1011DC00002EE63AA303C4104288032E4244C407EF
:1011EC002E4207A30388A9F411023F8407A3032E00
:1011FC008617A3033F424408012E4617A3032E462D
:10120C000FA303C018600C00C018608800888820E9
:10121C000802007CF0010082208888002E424400E5
:10122C00012E425BAB0344C51F63042FC617E303B7
:10123C002E8610A2032FC618E3033F8417C2073F64
:10124C00841742002E861EA30731C61F63048E101E
:10125C00428803104218A303319551520421841083
:10126C00C20771D71A630471D61C63042EC618A367
:10127C00032FC61742002EC65893052FC6176304BA
:10128C002E0607A3039F1042080131C618A3033191
:10129C00C618150131C65AAB02312AA26204312A92
:1012AC004208011F2222C207278410C20120088293
:1012BC0020000E218490034445000000000000C073
:1012CC000782200000000038E8A30721B419E303CB
:1012DC0000B810A20310DA1CA30700B8F883034C63
:1012EC008A238400C0C7E8A10321B419630404183D
:1012FC00428803083084920121A4324A02861042AB
:10130C00880300AC5A630400B419630400B818A332
:10131C000300BCF8420000D8EC210400B4194200D0
:10132C0000B8E0E003421C21240300C418B30500FC
:10133C00C418150100C45AAB02004445540400C43F
:10134C00E8A103007C44C4078810410802841042C1
:10135C000801821044880000888A00000340008045
:10136C00031003800320004000200010000800043C
:10137C00000200010380034003200080031047613A
:08138C006D65204F76657200CB
:00000001FF
