:100000000C943A000C9457000C9457000C94570031
:100010000C9457000C9457000C9457000C94570004
:100020000C9457000C9457000C9457000C945700F4
:100030000C9457000C9457000C9457000C945700E4
:100040000C9457000C9457000C9457000C945700D4
:100050000C9457000C9457000C9457000C945700C4
:100060000C9457000C9457000C9457000C945700B4
:100070000C94570011241FBECFEFD4E0DEBFCDBFDC
:1000800013E0A0E0B1E0E8EAF3E102C005900D92D0
:10009000A635B107D9F723E0A6E5B3E001C01D926C
:1000A000A137B207E1F70E941A070C94D2090C9409
:1000B0000000CF93DF931F92CDB7DEB79E012F5F75
:1000C0003F4F45E06DE173E00E94CE0091E0980F54
:1000D000909300019981915097BD18BC95B5977088
:1000E00039F095B5209100012770987F922B95BD2E
:1000F000298130E0E82FF0E0E35EFC4FC901008089
:1001000002C0880F991F0A94E2F70F90DF91CF91F8
:10011000089585B3897F85BB85B59091000197705F
:10012000887F892B85BD089585B5887F85BD089515
:1001300085B382FB882780F90895009719F001970D
:1001400041F0089584B58F736295660F660F607CE9
:1001500005C084B563706295607F8F7C682B64BD39
:100160000895009741F0019759F484B58E7F84BDBE
:1001700084B5826002C084B58C7F84BD81E008951F
:1001800080E0089514BC15BC16BC18BC84B58E7FE5
:1001900084BD84B5826084BD81E00895CF93DF93F0
:1001A000DC01FB0160E070E080E0C1E0D0E084179A
:1001B000C9F09191BE01092E02C0660F771F0A9403
:1001C000E2F76F5F7F4F769567956A0F7B1F02C0DE
:1001D000769567959A95E2F76F3F710519F010F0E3
:1001E0008F5FE5CFF9016083DF91CF9108959C0186
:1001F000215031093093CD0081508093CC00089577
:10020000CF93DF93EC01888199810E94F7008A8166
:100210009BEF980F943008F088E098E19093C90024
:100220008550880F8093CA0081E0DF91CF910895B7
:100230008091C800881F8827881F08958091C80072
:1002400085FB882780F908958091C80086FB882760
:1002500080F90895CF93C82F0E941E018823E1F3EF
:100260008091C80080648093C800C093CE00CF9175
:1002700008958091C80087FFFCCF8091CE0008953B
:10028000CF93DF93EC018991882319F00E942A0112
:10029000FACFDF91CF910895E1E6F0E080E8808326
:1002A0001082A89584B7877F84BFE0E6F0E0808164
:1002B00088618083108208951092800084E080938A
:1002C000810010928500109284000895809184002E
:1002D000909185000895AC018091840090918500F3
:1002E0009C01241B350B283E3340B0F70895209124
:1002F000840030918500820F931F0C946B01853030
:1003000098F4673088F421E030E001C0220F6A954C
:10031000EAF7E82FF0E0E95AFC4F922F90958081A0
:1003200089234111822B80830895853080F46730C2
:1003300070F421E030E001C0220F6A95EAF7E82F5F
:10034000F0E0E95AFC4F8081282381E009F480E045
:10035000089560915603E62FF0E0E95AFC4F808142
:100360000E94F701809156038F5F853018F48093C7
:1003700056030895109256030895E7E5F3E01082BE
:10038000118212821382148208950E94D5010C9466
:10039000BD019C01FC01FF2784A1832B84A395A1AF
:1003A000892F832B85A381E00895CF93DF93CCE23F
:1003B000D3E0899199910E94C90183E0CA33D8079B
:1003C000C1F783E090E40E94C90180E090E80E94B8
:1003D000C90183E090E10E94C90183E090E80E9496
:1003E000C90183E090E2DF91CF910C94C901E091C3
:1003F0005C03F0E0EE0FFF1FEE5DFC4F20813181CA
:10040000F901FF2795A1932B95A3ECE2F3E097E088
:1004100020813181D901BB2795962C91959780FF3A
:1004200003C03095232301C0232B95962C938695EA
:10043000915032969111ECCFE62FF0E0EE0FFF1FB6
:10044000EE5DFC4F80819181FC01FF2785A1909595
:10045000892385A360935C0308956230710519F1C7
:1004600070F46130710559F5FC01FF2724A1392F83
:100470003095922F932394A385A183231DC06330CD
:10048000710541F064307105D1F4FC01FF2784A1AE
:10049000892B0FC0FC01FF2784A1892B84A385A190
:1004A0009095892309C0FC01FF2784A1292F20955D
:1004B000822384A385A1892B85A381E0089580E010
:1004C0000895E82FF0E0EE0FFF1FE35AFC4F808104
:1004D000882321F0918181E0892702C080E090E0AB
:1004E00081700895E82FF0E0EE0FFF1FE35AFC4FF4
:1004F0008081811102C0818102C080E090E0817022
:100500000895E82FF0E0EE0FFF1FE35AFC4F8081C3
:100510000895E82FF0E0EE0FFF1FE35AFC4F9081A3
:1005200081E0892708957F928F929F92AF92BF9228
:10053000CF92DF92EF92FF920F931F93CF93DF93AF
:10054000CDE5D3E05AE3C52E53E0D52E66E0762EF6
:1005500088818983F601019111916F015801BB24B3
:10056000F50124A1E12EFF2485A190E08E219F2199
:1005700030E02E213F21232B31F0892B51F433E041
:10058000832E912C0DC0892B41F488248394912CC7
:1005900007C094E0892E912C03C082E0882E912C14
:1005A00064E070E0C8010E942D0262E070E0C801C2
:1005B0000E942D02872D8A95F1F7F50183A190E025
:1005C000E822F92281E0EF2809F080E08883B40175
:1005D000C8010E942D022296F3E0C736DF0709F01A
:1005E000B7CFDF91CF911F910F91FF90EF90DF90E8
:1005F000CF90BF90AF909F908F907F900895089577
:10060000009789F0FC012381621B67FD09C0062E5B
:10061000000C770B248130E081E0621773070CF047
:1006200080E08170089580E00895CF93DF93FC010E
:10063000892B79F18181481760F59281291748F556
:100640009381A62FA91BA7FD24C00A2E000CBB0B6B
:10065000C481D0E0AC17BD07E4F4622F0E94A80764
:10066000480F858190E0BD010E94B1070696242FB6
:10067000269526952695E80FF91FE20FF11D80813A
:1006800090E0477002C0959587954A95E2F7817092
:1006900001C080E0DF91CF910895CF93DF93EC010B
:1006A0000E945C019E0140E050E062E17AE780E058
:1006B00090E00E94EA0730936A0320936903DF9178
:1006C000CF91089580916703909168030E946B0118
:1006D00020916703309168038091690390916A03C8
:1006E000820F931F90936803809367030895692F87
:1006F0000C94950141E0611101C040E0692F0C9418
:100700007F010C947A035F926F927F928F929F92F7
:10071000AF92BF92CF92DF92EF92FF920F931F930F
:10072000CF93DF93562E872E942E5C01E62EF72E64
:10073000C62F660FDD0BC81BD10987FDD395072F88
:10074000770F110B091B110997FD1395D7FF03C0F4
:1007500077247A9402C07724739417FF03C0662429
:100760006A9402C066246394D7FF03C0D195C195F3
:10077000D10917FF03C0119501951109C017D107C1
:10078000A4F06E01D594C794F92EA51411F1692D2A
:100790008A2D9F2D0E947A03C01AD10AD7FE03C06A
:1007A000CC0EDD1EF60CA70CF0CF6801D594C794D3
:1007B000E82EB81471F0692D8E2D9B2D0E947A03BE
:1007C000CC1ADD0AD7FE03C0C00ED11EE70CB60C52
:1007D000F0CF692DC701DF91CF911F910F91FF904D
:1007E000EF90DF90CF90BF90AF909F908F907F90D1
:1007F0006F905F900C947A03FF920F931F93CF93A7
:10080000DF93D82FF92E162FC72F042F792F0E9490
:100810008303402F6D2F7C2F8D2F9F2D0E948303EC
:10082000402F612F7C2F812F9F2D0E948303402F0B
:10083000612F7C2F8D2F9C2F0E948303DF91CF91FE
:100840001F910F91FF9008950E94BD01E1E0F1E03A
:10085000118A14860895DF92EF92FF920F931F93EF
:10086000CF93DF93D82E7B01162F0F2D809103019C
:1008700090910401D0E0019799F50F2D0D1BE091A7
:100880000901F0910A018181C0E0D817B8F4809184
:10089000090190910A01FC012281C21768F42C2FF2
:1008A0004D2F6D2D0E941503682F8E2D8C0F902FCC
:1008B0000E947A03CF5FEBCFDF5FDFCFE0910901CA
:1008C000F0910A018281C81740F460E08E2D8C0FF0
:1008D000902F0E947A03CF5FF1CF015030C0DF5FCD
:1008E0001E2D1D0FE0910901F0910A018181C0E0E8
:1008F000D817A8F48091090190910A01FC01228186
:10090000C21768F72C2F4D2F6D2D0E941503682FED
:10091000812F9F2D9C0F0E947A03CF5FEBCFE09138
:100920000901F0910A018281C81740F460E0812F2B
:100930009F2D9C0F0E947A03CF5FF1CF1F5F812F05
:10094000902FDF91CF911F910F91FF90EF90DF904B
:1009500008950F931F93CF938C01C0E0F80181910C
:100960008F01882341F00E942B04BC01CF5F8530AA
:1009700014F477FFF3CF8C2FCF911F910F9108952F
:100980000F931F93CF93DF9310920D0140930E01AD
:10099000109211010091090110910A010115110530
:1009A00009F449C09B01EC01F801818160910701C4
:1009B0007091080190E00E94B107BC0180910B0189
:1009C00090910C010E94C207CB016AE070E00E9486
:1009D000B1079093100180930F013093060120938B
:1009E000050140E250E0BE0182E191E00E94AA09C7
:1009F00080910101909102010197E9F4FE010190BB
:100A00000020E9F73197BF016C1B7D0BF801818154
:100A10008F5F0E94A807815020910301309104014B
:100A20002130310511F095E001C097E0981718F4D6
:100A30008EEF80931101DF91CF911F910F91089557
:100A400020910301309104012130310511F070E053
:100A500001C076E04FEF60E00E94C004089590E08E
:100A60009093080180930701089590930201809369
:100A700001010895909304018093030108959093D8
:100A80000A0180930901089580916B0390916C0392
:100A9000019690936C0380936B0320910F0130912A
:100AA00010018217930708F469C010926C0310922A
:100AB0006B03E0910D01F0E0EF5FFE4F8189811142
:100AC0000AC080910E01823008F458C08150809392
:100AD0000E0110920D0180910D0190E0FC01EF5F7D
:100AE000FE4F2189222309F449C040910101509110
:100AF0000201209111014115510521F041305105AC
:100B000099F024C0211122C0609105017091060165
:100B10008E5E9E4F0E94A90490E0019790910D0176
:100B2000890F80930D0112C060910501709106013B
:100B300040910301509104014130510511F4720FAD
:100B400001C0621B8E5E9E4F0E94A904809111011C
:100B50008F5F80931101082E000C990BE091090121
:100B6000F0910A01218130E0281739073CF41092F6
:100B7000110180910D018F5F80930D010C94A901EB
:100B8000CF93DF93C1E0D1E09B878A870E94C501A4
:100B900084E190E09F838E83DF91CF910C942404B5
:100BA000FC012089318981E090E0821793074CF4A1
:100BB0004281461303C04381471729F001963296BC
:100BC000F4CF80E0089581E008950F931F93CF93B1
:100BD000DF93EC018E89811136C0088119818C89DF
:100BE0009D898130910551F038F08230910541F0B6
:100BF000039739F4015005C0115003C00F5F01C0C5
:100C00001F5F053010F4173018F081E08E8B1BC089
:100C1000B801CE010E94D0058111F7CF888999894A
:100C2000FC01EE0FFF1FEC0FFD1F01973297181606
:100C300019063CF4DF0112972D913C9131832083FA
:100C4000F4CF08831983DF91CF911F910F910895FD
:100C5000FC0181E090E0918B808B88E090E0938BA9
:100C6000828B82E0808386E08183168A158A148ACB
:100C700061E0808191810E947A030C944405FC011B
:100C8000208931892830310524F42F5F3F4F318B83
:100C9000208B0895CF93DF93EC0183E00E946102E3
:100CA000882349F08C899D898D7F019721F083E00D
:100CB00090E09D8B8C8B81E00E946102882349F03B
:100CC0008C899D898D7F019721F081E090E09D8B3B
:100CD0008C8B80E00E946102882339F08C899D8989
:100CE0008D7F892B11F01D8A1C8A82E00E9461028F
:100CF000882349F08C899D898D7F892B21F082E0A2
:100D000090E09D8B8C8BDF91CF910895861306C068
:100D100081E020E0971380E0922F089580E090E03A
:100D20000895CF93DF930E949A09EC010E949A09DB
:100D3000FC01CE0165E070E00E94D607282FCF01AC
:100D400067E070E00E94D607982F822FDF91CF9145
:100D500008950F931F93CF93DF938C01EB010E94B3
:100D6000910699838883F8012089318980E090E099
:100D7000821793075CF458814081541304C0598151
:100D80004181541761F301963296F2CFDF91CF91F2
:100D90001F910F91089561E0FC01808191810C9475
:100DA0007A030C9418010C9439010C941E010C94D4
:100DB00024010C942A010E942A010E942401882304
:100DC000E1F38CE291E00197F1F70E9418018111A3
:100DD0000C94D30608950C944001CF93DF9300D078
:100DE0001F92CDB7DEB78091440390914503A09147
:100DF000460389839A83AB83509A589A0E94C20013
:100E00008FE690E00E94590081E090E00E94B100DE
:100E100061E070E081E090E00E949D000E94890006
:100E2000CE0101960E9400010F900F900F90DF916C
:100E3000CF910895CF93DF9300D0CDB7DEB787E190
:100E400090E00E942B088C010E944C0184EF91E0FD
:100E50000E94C0050E94FF0284EF91E00E944D03B2
:100E60000E94ED06C8010E942806BE016F5F7F4FF9
:100E7000C8010E94A906E12CF12C0E9462030E9485
:100E80009302F8018689811144C00E94D106811124
:100E900042C0C12CD12CF80180899189C816D9068D
:100EA00074F4F601EE0FFF1FE00FF11F61E0808187
:100EB00091810E947A03FFEFCF1ADF0AECCFFFEF98
:100EC000EF1AFF0ACE0101960E94CB0687EAE816C8
:100ED000F104CCF0F8019081898198130DC09181C3
:100EE0008A81981309C0BE016F5F7F4FC8010E94BD
:100EF000A906C8010E943F060E942404C8010E945E
:100F0000E505E12CF12CC8010E944A060E94440527
:100F1000B4CF10E001C011E081E40E94DB068CE355
:100F200091E00E943F058AE00E942F0581E090E059
:100F30000E943505112319F087E493E002C08BE489
:100F400093E00E9420050E9462030E944405FBCFAB
:100F5000002480FD060E660F11F08695D1F7802DD6
:100F600008950024552704C0080E591F880F991FA3
:100F7000009729F076956795B8F37105B9F7802D3C
:100F8000952F0895AA1BBB1B51E107C0AA1FBB1FC9
:100F9000A617B70710F0A61BB70B881F991F5A9505
:100FA000A9F780959095BC01CD01089597FB072E78
:100FB00016F4009407D077FD09D00E94C20707FC01
:100FC00005D03EF4909581959F4F08957095619559
:100FD0007F4F0895052E97FB1EF400940E94010890
:100FE00057FD07D00E94090807FC03D04EF40C946B
:100FF000010850954095309521953F4F4F4F5F4FD9
:10100000089590958095709561957F4F8F4F9F4F74
:101010000895A1E21A2EAA1BBB1BFD010DC0AA1F39
:10102000BB1FEE1FFF1FA217B307E407F50720F051
:10103000A21BB30BE40BF50B661F771F881F991FCC
:101040001A9469F760957095809590959B01AC0115
:10105000BD01CF0108950F931F93CF93DF9382308B
:10106000910510F482E090E0E0916F03F09170033D
:1010700020E030E0A0E0B0E0309719F140815181EC
:101080000281138148175907C8F08417950769F43E
:10109000109731F012960C93129713961C9327C059
:1010A00000936F031093700322C02115310519F0CE
:1010B0004217530718F49A01BD01EF01DF01F8014F
:1010C000DBCF21153105F9F0281B390B2430310510
:1010D00080F48A819B816115710521F0FB01938366
:1010E000828304C09093700380936F03FE01329655
:1010F00044C0FE01E20FF31F819391932250310906
:10110000398328833AC020916D0330916E03232BDD
:1011100041F4209134013091350130936E032093D6
:101120006D0320913201309133012115310541F4D5
:101130002DB73EB74091360150913701241B350B36
:10114000E0916D03F0916E03E217F307A0F42E1BFC
:101150003F0B2817390778F0AC014E5F5F4F24171B
:10116000350748F04E0F5F1F50936E0340936D0399
:101170008193919302C0E0E0F0E0CF01DF91CF9145
:101180001F910F910895CF93DF93009709F481C0C9
:10119000FC01329713821282A0916F03B091700309
:1011A000109781F420813181820F931F20916D036C
:1011B00030916E032817390751F5F0936E03E093D1
:1011C0006D0367C0ED0120E030E0CE17DF0740F48B
:1011D0004A815B819E0141155105F1F0EA01F5CF8D
:1011E000D383C28340815181840F951FC817D907CB
:1011F00059F488819981840F951F02969183808389
:101200008A819B81938382832115310529F4F09390
:101210007003E0936F033DC0E901FB83EA834991CA
:101220005991C40FD51FEC17FD0761F4808191819E
:10123000840F951F0296E9019983888382819381A7
:101240009B838A83E0E0F0E012968D919C91139746
:10125000009719F0FD01DC01F7CF8D919C9111975A
:101260009D012E5F3F4F820F931F20916D033091A0
:101270006E032817390769F4309729F41092700328
:1012800010926F0302C013821282B0936E03A09378
:101290006D03DF91CF9108958F929F92AF92BF928D
:1012A000CF92DF92EF92FF92CF93DF93EC016881B0
:1012B00079818A819B81611571058105910521F4F0
:1012C00064E279ED8BE597E02DE133EF41E050E00A
:1012D0000E94EA0749015A0127EA31E440E050E060
:1012E0000E94B9096B017C012CEE34EF4FEF5FEFE8
:1012F000C501B4010E94B909DC01CB018C0D9D1D13
:10130000AE1DBF1DB7FF03C00197A109B048888378
:101310009983AA83BB839F77DF91CF91FF90EF9052
:10132000DF90CF90BF90AF909F908F9008950E94D4
:101330004C09089588E391E00E944C090895A0E0CB
:10134000B0E08093380190933901A0933A01B093B3
:101350003B010895FB01DC014150504048F00190F1
:101360000D920020C9F701C01D9241505040E0F796
:101370000895EE27FF27AA27BB2708C0A20FB31F97
:10138000E41FF51F220F331F441F551F96958795A5
:101390007795679598F37040A9F7009799F7BD0185
:0813A000CF010895F894FFCF7E
:1013A8000100000000000014000000000000000020
:1013B8000000000000000000000000000000000025
:1013C8000000000000000000000000000000000015
:1013D8000000000071032000010000000105072043
:1013E8005F050000000000C6186380014A2900005C
:1013F800004A7DF59502C417471F01632222320671
:1014080026155193058608000000880821080282E5
:1014180020848800805457090080904F08000000FD
:1014280060880000800F00000000008C010022226C
:1014380002002EE63AA303C4104288032E4244C495
:10144800072E4207A30388A9F411023F8407A303C8
:101458002E8617A3033F424408012E4617A3032EE6
:10146800460FA303C018600C00C018608800888865
:10147800200802007CF0010082208888002E424467
:1014880000012E425BAB0344C51F63042FC617E35C
:10149800032E8610A2032FC618E3033F8417C20742
:1014A8003F841742002E861EA30731C61F63048E91
:1014B80010428803104218A3033195515204218425
:1014C80010C20771D71A630471D61C63042EC6189C
:1014D800A3032FC61742002EC65893052FC61763BD
:1014E800042E0607A3039F1042080131C618A30360
:1014F80031C618150131C65AAB02312AA26204312D
:101508002A4208011F2222C207278410C20120088C
:101518008220000E21849003444500000000000052
:10152800C00782200000000038E8A30721B419E3AF
:101538000300B810A20310DA1CA30700B8F883034D
:101548004C8A238400C0C7E8A10321B419630404AA
:1015580018428803083084920121A4324A02861076
:1015680042880300AC5A630400B419630400B81835
:10157800A30300BCF8420000D8EC210400B41942CF
:101588000000B8E0E003421C21240300C418B3059E
:1015980000C418150100C45AAB02004445540400A5
:1015A800C4E8A103007C44C40788104108028410E1
:1015B800420801821044880000888A00000003065F
:1015C800080A034000800310038003200040002025
:1015D80000100008000400020001038003400320FB
:1015E80000800310D00008576F6E0047616D6520BA
:0615F8004F766572000051
:00000001FF
