:100000000C943A000C9457000C9457000C94570031
:100010000C9457000C9457000C9457000C94570004
:100020000C9457000C9457000C9457000C945700F4
:100030000C9457000C9457000C9457000C945700E4
:100040000C9457000C9457000C9457000C945700D4
:100050000C9457000C9457000C9457000C945700C4
:100060000C9457000C9457000C9457000C945700B4
:100070000C94570011241FBECFEFD4E0DEBFCDBFDC
:1000800013E0A0E0B1E0E8EEF3E102C005900D92CC
:10009000AA35B107D9F723E0AAE5B3E001C01D9264
:1000A000A537B207E1F70E9418070C94F2090C94E7
:1000B0000000CF93DF930F92CDB7DEB79E012F5F85
:1000C0003F4F45E06DE173E00E94CC00E82F81E0F6
:1000D0008E0F809300018981815087BD18BC85B542
:1000E000877039F095B5809100018770987F892BD2
:1000F00085BD898190E0F0E0E35EFC4F208102C085
:10010000880F991F2A95E2F70F90DF91CF910895FC
:1001100085B3897F85BB95B5809100018770987FF5
:10012000892B85BD089585B5887F85BD089585B3E4
:1001300082FB882780F90895009719F0019751F004
:10014000089584B58F736295660F660F607C682B87
:1001500064BD089584B5629560738F7CF8CF009775
:1001600021F0019739F080E0089584B58C7F84BD3B
:1001700081E0089584B58E7F84BD84B58260F7CF19
:1001800014BC15BC16BC18BC84B58E7F84BD84B568
:10019000826084BD81E00895CF93DF93EC01D901A3
:1001A000FB0120E080E061E070E0841304C02C9348
:1001B000DF91CF91089591919B01092E02C0220FEA
:1001C000331F0A94E2F72F5F3F4F369527952C0F88
:1001D0003D1F02C0369527959A95E2F72F3F3105CE
:1001E00031F328F38F5FE1CF9C0101979093CD000D
:1001F00021502093CC000895CF93DF93EC018881A8
:1002000099810E94F4008A819BEF980F943008F046
:1002100088E098E19093C9008550880F8093CA00C8
:1002200081E0DF91CF9108958091C800881F8827D1
:10023000881F08958091C80085FB882780F908955C
:100240008091C80086FB882780F90895CF93C82F36
:100250000E941A018823E1F38091C8008064809392
:10026000C800C093CE00CF9108958091C80087FF49
:10027000FCCF8091CE000895CF93DF93EC0189915C
:10028000811103C0DF91CF9108950E942601F7CF1D
:10029000E1E6F0E080E880831082A89584B7877F4C
:1002A00084BFE0E6F0E08081886180831082089559
:1002B0001092800084E0809381001092850010925B
:1002C0008400089580918400909185000895AC0188
:1002D00080918400909185009C01241B350B283E61
:1002E0003340B0F708952091840030918500820F4B
:1002F000931F0C946701853098F4673088F421E0EF
:1003000030E001C0220F6A95EAF7E82FF0E0E55AE5
:10031000FC4F922F9095808189234111822B8083FD
:100320000895853080F4673070F421E030E001C03A
:10033000220F6A95EAF7E82FF0E0E55AFC4F80813A
:10034000282381E009F480E0089560915A03E62FA4
:10035000F0E0E55AFC4F80810E94F30180915A033E
:100360008F5F853018F480935A03089510925A03D2
:100370000895EBE5F3E01082118212821382148259
:1003800008950E94D1010C94B9019C01FC01FF2742
:1003900084A1832B84A395A1892F832B85A381E03E
:1003A0000895CF93DF93CCE2D3E0899199910E9495
:1003B000C50183E0CA33D807C1F783E090E40E9407
:1003C000C50180E090E80E94C50183E090E10E94B1
:1003D000C50183E090E80E94C50183E090E2DF91CF
:1003E000CF910C94C501E0916003F0E0EE0FFF1F88
:1003F000EE5DFC4F20813181F901FF2795A1932B00
:1004000095A3ECE2F3E097E020813181D901BB278D
:1004100095962C91959780FF03C03095232301C0BA
:10042000232B95962C938695915032969111ECCF73
:10043000E62FF0E0EE0FFF1FEE5DFC4F8081918113
:10044000FC01FF2785A19095892385A36093600314
:1004500008956230710519F170F46130710559F534
:10046000FC01FF2724A1392F3095922F932394A3C9
:1004700085A183231DC06330710541F0643071058F
:10048000D1F4FC01FF2784A1892B0FC0FC01FF27B9
:1004900084A1892B84A385A19095892309C0FC019F
:1004A000FF2784A1292F2095822384A385A1892B4E
:1004B00085A381E0089580E00895E82FF0E0EE0F35
:1004C000FF1FEF59FC4F8081882321F0918181E04B
:1004D000892702C080E090E081700895E82FF0E065
:1004E000EE0FFF1FEF59FC4F8081811102C0818107
:1004F00002C080E090E081700895E82FF0E0EE0FF8
:10050000FF1FEF59FC4F80810895E82FF0E0EE0FB8
:10051000FF1FEF59FC4F908181E0892708957F925A
:100520008F929F92AF92BF92CF92DF92EF92FF9203
:100530000F931F93CF93DF93C1E6D3E05AE3C52E09
:1005400053E0D52E66E0762E88818983F6010191ED
:1005500011916F015801BB24F50124A1E12EFF2464
:1005600085A190E08E219F2130E02E213F21232B79
:1005700031F0892B51F433E0832E912C0DC0892B5F
:1005800041F488248394912C07C094E0892E912C07
:1005900003C082E0882E912C64E070E0C8010E94C4
:1005A000290262E070E0C8010E942902872D8A9525
:1005B000F1F7F50183A190E0E822F92281E0EF282C
:1005C00009F080E08883B401C8010E9429022296C4
:1005D000F3E0CB36DF0709F0B7CFDF91CF911F9162
:1005E0000F91FF90EF90DF90CF90BF90AF909F90D2
:1005F0008F907F9008950895009789F0FC012381E2
:10060000621B67FD09C0062E000C770B248130E0C9
:1006100081E0621773070CF080E08170089580E03C
:100620000895CF93DF93FC01892B79F181814817DD
:1006300060F59281291748F59381A62FA91BA7FD84
:1006400024C00A2E000CBB0BC481D0E0AC17BD0740
:10065000E4F4622F0E94A207480F858190E0BD015B
:100660000E94AB070696242F269526952695E80F1F
:10067000F91FE20FF11D808190E0477002C095954F
:1006800087954A95E2F7817001C080E0DF91CF91B4
:100690000895CF93DF93EC010E9458019E0140E042
:1006A00050E062E17AE780E090E00E94E407309356
:1006B0006E0320936D03DF91CF91089580916B03BA
:1006C00090916C030E94670120916B0330916C0341
:1006D00080916D0390916E03820F931F90936C0332
:1006E00080936B030895692F0C94910141E061118F
:1006F00001C040E0692F0C947B010C9476035F925B
:100700006F927F928F929F92AF92BF92CF92DF9221
:10071000EF92FF920F931F93CF93DF93562E872E66
:10072000942E5C01E62EF72EC62F660FDD0BC81B3C
:10073000D10987FDD395072F770F110B091B1109DD
:1007400097FD1395D7FF03C077247A9402C07724CE
:10075000739417FF03C066246A9402C066246394EE
:10076000D7FF03C0D195C195D10917FF03C01195DB
:1007700001951109C017D107A4F06E01D594C79453
:10078000F92EA51411F1692D8A2D9F2D0E94760353
:10079000C01AD10AD7FE03C0CC0EDD1EF60CA70C82
:1007A000F0CF6801D594C794E82EB81471F0692D84
:1007B0008E2D9B2D0E947603CC1ADD0AD7FE03C036
:1007C000C00ED11EE70CB60CF0CF692DC701DF912A
:1007D000CF911F910F91FF90EF90DF90CF90BF903E
:1007E000AF909F908F907F906F905F900C94760366
:1007F000FF920F931F93CF93DF93D82FF92E162FCD
:10080000C72F042F792F0E947F03402F6D2F7C2F3D
:100810008D2F9F2D0E947F03402F612F7C2F812FD2
:100820009F2D0E947F03402F612F7C2F8D2F9C2FA7
:100830000E947F03DF91CF911F910F91FF90089548
:100840000E94B901E1E0F1E0118A14860895DF9277
:10085000EF92FF920F931F93CF93DF93D82E7B01DC
:10086000162F0F2D8091030190910401D0E0019784
:1008700099F50F2D0D1BE0910901F0910A0181817D
:10088000C0E0D817B8F48091090190910A01FC01E9
:100890002281C21768F42C2F4D2F6D2D0E94110359
:1008A000682F8E2D8C0F902F0E947603CF5FEBCF99
:1008B000DF5FDFCFE0910901F0910A018281C81763
:1008C00040F460E08E2D8C0F902F0E947603CF5F56
:1008D000F1CF015030C0DF5F1E2D1D0FE0910901E7
:1008E000F0910A018181C0E0D817A8F48091090134
:1008F00090910A01FC012281C21768F72C2F4D2F1D
:100900006D2D0E941103682F812F9F2D9C0F0E9437
:100910007603CF5FEBCFE0910901F0910A0182816C
:10092000C81740F460E0812F9F2D9C0F0E94760332
:10093000CF5FF1CF1F5F812F902FDF91CF911F915C
:100940000F91FF90EF90DF9008950F931F93CF9337
:100950008C01C0E0F80181918F01882341F00E9451
:100960002704BC01CF5F853014F477FFF3CF8C2FC1
:10097000CF911F910F9108950F931F93CF93DF9302
:1009800010920D0140930E01109211010091090186
:1009900010910A010115110509F449C09B01EC01F0
:1009A000F8018181609107017091080190E00E9437
:1009B000AB07BC0180910B0190910C010E94BC0718
:1009C000CB016AE070E00E94AB0790931001809326
:1009D0000F01309306012093050140E250E0BE0173
:1009E00082E191E00E94CA09809101019091020187
:1009F0000197E9F4FE0101900020E9F73197BF016A
:100A00006C1B7D0BF80181818F5F0E94A2078150D2
:100A100020910301309104012130310511F095E05E
:100A200001C097E0981718F48EEF80931101DF91C1
:100A3000CF911F910F9108952091030130910401EE
:100A40002130310511F070E001C076E04FEF60E039
:100A50000E94BC04089590E09093080180930701E0
:100A600008959093020180930101089590930401E9
:100A700080930301089590930A01809309010895DA
:100A800080916F039091700301969093700380930F
:100A90006F0320910F01309110018217930708F422
:100AA00069C01092700310926F03E0910D01F0E0A5
:100AB000EF5FFE4F818981110AC080910E01823063
:100AC00008F458C0815080930E0110920D0180915E
:100AD0000D0190E0FC01EF5FFE4F2189222309F414
:100AE00049C040910101509102012091110141152D
:100AF000510521F04130510599F024C0211122C047
:100B000060910501709106018E5E9E4F0E94A504C2
:100B100090E0019790910D01890F80930D0112C013
:100B2000609105017091060140910301509104010B
:100B30004130510511F4720F01C0621B8E5E9E4F51
:100B40000E94A504809111018F5F80931101082EEE
:100B5000000C990BE0910901F0910A01218130E02C
:100B6000281739073CF41092110180910D018F5F15
:100B700080930D010C94A501CF93DF93C1E0D1E0E8
:100B80009B878A870E94C10184E190E09F838E83C6
:100B9000DF91CF910C942004FC012485358581E000
:100BA00090E08217930714F080E008954281461385
:100BB00003C04381471719F001963296F2CF81E0C6
:100BC00008950F931F93CF93DF93EC018A898111CE
:100BD00014C0088119818889998982309105A1F012
:100BE00020F4892B79F4115002C0039779F0053075
:100BF00010F4173068F081E08A8BDF91CF911F915C
:100C00000F9108950F5FF3CF1F5FF1CF0150EFCF2A
:100C1000B801CE010E94CC058111EDCF8C859D8558
:100C2000FC01EE0FFF1FEC0FFD1F01973297181606
:100C300019061CF008831983E0CFDF0112972D916C
:100C40003C9131832083F1CFFC0181E090E09587D6
:100C5000848786E090E09787868782E0808386E0BD
:100C60008183128A118A108A61E0808191810E94B9
:100C700076030C944005FC018485958586309105AA
:100C80001CF40196958784870895CF93DF93EC0138
:100C900083E00E945D02882349F0888999898D7FCD
:100CA000019721F083E090E0998B888B81E00E948E
:100CB0005D02882349F0888999898D7F019721F009
:100CC00081E090E0998B888B80E00E945D02882310
:100CD00039F0888999898D7F892B11F0198A188AB2
:100CE00082E00E945D02882349F0888999898D7F7E
:100CF000892B21F082E090E0998B888BDF91CF9156
:100D00000895292F861306C081E090E0271721F06F
:100D100080E0089580E090E00895CF93DF930E94F3
:100D2000BA09D82FC92F0E94BA09FC018D2F9C2F18
:100D300065E070E00E94D007282FCF0167E070E0E7
:100D40000E94D007982F822FDF91CF9108950F93A3
:100D50001F93CF93DF938C01EB010E948D06998343
:100D60008883F8012485358590E080E00AC05081B1
:100D70004881541304C051814981541771F301967D
:100D80003296821793079CF3DF91CF911F910F91B9
:100D9000089561E0FC01808191810C9476030C94AC
:100DA00014010C9435010C941A010C9420010C943C
:100DB00026010E9426010E9420018823E1F38CE293
:100DC00091E00197F1F70E94140181110C94D10672
:100DD00008950C943C01CF93DF9300D00F92CDB7D0
:100DE000DEB78091440390914503A0914603898327
:100DF0009A83AB83509A589A0E94C0008FE690E085
:100E00000E94590081E090E00E94AF0061E070E034
:100E100081E090E00E949C000E948800CE01019633
:100E20000E94FC000F900F900F90DF91CF910895DA
:100E300000D0CDB7DEB783E190E00E9425088C0199
:100E40000E94480184EF91E00E94BC050E94FB02D1
:100E500084EF91E00E9449030E94EB06C8010E94C2
:100E60002406BE016F5F7F4FC8010E94A706D12CE8
:100E7000C12C0E945E030E948F02F80182898823A0
:100E8000E1F081E40E94D906F12C8CE391E00E940C
:100E90003B058AE00E942B0581E090E00E9431052D
:100EA00087E493E0F11002C080E593E00E941C0506
:100EB0000E945E030E944005FBCF0E94CF06F82EE1
:100EC0008111E3CFF12CE12CF80184859585E8169A
:100ED000F90654F1FFEFCF1ADF0ACE0101960E9406
:100EE000C90687EAC816D104CCF0F801908189813F
:100EF00098130DC091818A81981309C0BE016F5F5C
:100F00007F4FC8010E94A706C8010E943B060E94AD
:100F10002004C8010E94E105D12CC12CC8010E9407
:100F200045060E944005A5CFF701EE0FFF1FE00F19
:100F3000F11F61E0808191810E947603FFEFEF1A3B
:100F4000FF0AC2CF002480FD060E660F11F08695C1
:100F5000D1F7802D08950024552704C0080E591F8D
:100F6000880F991F009729F076956795B8F371055A
:100F7000B9F7802D952F0895AA1BBB1B51E107C01F
:100F8000AA1FBB1FA617B70710F0A61BB70B881F19
:100F9000991F5A95A9F780959095BC01CD010895A8
:100FA00097FB072E16F4009407D077FD09D00E9416
:100FB000BC0707FC05D03EF4909581959F4F08959E
:100FC000709561957F4F0895052E97FB1EF4009450
:100FD0000E94FB0757FD07D00E94030807FC03D0BF
:100FE0004EF40C94FB0750954095309521953F4F5A
:100FF0004F4F5F4F089590958095709561957F4F05
:101000008F4F9F4F0895A1E21A2EAA1BBB1BFD0113
:101010000DC0AA1FBB1FEE1FFF1FA217B307E407D7
:10102000F50720F0A21BB30BE40BF50B661F771F2F
:10103000881F991F1A9469F760957095809590950F
:101040009B01AC01BD01CF0108950F931F93CF9376
:10105000DF939C01029710F422E030E0E0917303EB
:10106000F091740390E080E0B0E0A0E0309791F45C
:10107000009709F445C0821B930B84309105B8F5A5
:101080008A819B816115710569F1FB0193838283DC
:10109000FE0111C040815181028113814217530723
:1010A000F0F04217530799F4109761F012960C93E1
:1010B000129713961C933296CF01DF91CF911F9117
:1010C0000F9108950093730310937403F4CF009766
:1010D00019F04817590718F4CA01BD01EF01DF01E3
:1010E000F801C4CF9093740380937303D1CFFE01B2
:1010F000E80FF91F21933193029799838883DCCFFE
:101100008091710390917203892B41F48091340195
:101110009091350190937203809371038091320115
:1011200090913301009741F48DB79EB740913601FD
:1011300050913701841B950B4091710350917203BC
:101140004817590708F0B8CF841B950B82179307EF
:1011500008F4B2CFB9016E5F7F4F8617970708F486
:10116000ABCF640F751F7093720360937103FA0124
:1011700021933193A1CFCF93DF939C010097E9F0A6
:10118000FC01329713821282C0917303D0917403D1
:10119000DE0190E080E02097A1F480819181280F0A
:1011A000391F80917103909172038217930709F0A0
:1011B00067C0F0937203E0937103DF91CF910895BC
:1011C000DA01AE17BF0708F041C012964D915C914D
:1011D0001397CD014115510599F7DC011396FC9346
:1011E000EE9312974D915D91A40FB51FEA17FB077F
:1011F00081F4208131812E5F3F4F240F351FDC01A8
:1012000011963C932E932281338113963C932E9317
:101210001297B0E0A0E08A819B810097B1F5FE01B2
:1012200081919191E80FF91F809171039091720360
:101230008E179F0711F6109759F5109274031092AC
:101240007303D0937203C0937103B7CFB383A283A8
:1012500040815181240F351FA217B30771F44E5FEF
:101260005F4F2D913C911197420F531F5183408343
:1012700012962D913C9133832283009709F0ADCFD4
:10128000F0937403E093730398CFDE01EC01C3CFB6
:1012900013961C921E921297D4CFCF92DF92EF92A8
:1012A000FF92CF93DF93CDB7DEB72A970FB6F894AE
:1012B000DEBF0FBECDBF89879A87A985BA858D917C
:1012C0009D910D90BC91A02D89839A83AB83BC83A3
:1012D000892B8A2B8B2B41F484E299EDABE5B7E0A7
:1012E00089839A83AB83BC8369817A818B819C815A
:1012F0002DE133EF41E050E00E94E4072D833E836F
:101300004F83588769837A838B839C8327EA31E4F0
:1013100040E050E00E94D9096B017C012CEE34EFD3
:101320004FEF5FEF6D817E818F8198850E94D90993
:10133000DC01CB018C0D9D1DAE1DBF1DB7FF03C091
:101340000197A109B048E985FA8580839183A2833A
:10135000B3839F772A960FB6F894DEBF0FBECDBF3A
:10136000DF91CF91FF90EF90DF90CF9008950E9492
:101370004D09089588E391E00E944D090895B0E079
:10138000A0E08093380190933901A0933A01B09383
:101390003B010895FB01DC014150504048F00190B1
:1013A0000D920020C9F701C01D9241505040E0F756
:1013B0000895EE27FF27AA27BB2708C0A20FB31F57
:1013C000E41FF51F220F331F441F551F9695879565
:1013D0007795679598F37040A9F7009799F7BD0145
:0813E000CF010895F894FFCF3E
:1013E80001000000000000140000000000000000E0
:1013F80000000000000000000000000000000000E5
:1014080000000000000000000000000000000000D4
:1014180000000000750320000100000001050720FE
:101428005F050000000000C6186380014A2900001B
:10143800004A7DF59502C417471F01632222320630
:1014480026155193058608000000880821080282A5
:1014580020848800805457090080904F08000000BD
:1014680060880000800F00000000008C010022222C
:1014780002002EE63AA303C4104288032E4244C455
:10148800072E4207A30388A9F411023F8407A30388
:101498002E8617A3033F424408012E4617A3032EA6
:1014A800460FA303C018600C00C018608800888825
:1014B800200802007CF0010082208888002E424427
:1014C80000012E425BAB0344C51F63042FC617E31C
:1014D800032E8610A2032FC618E3033F8417C20702
:1014E8003F841742002E861EA30731C61F63048E51
:1014F80010428803104218A30331955152042184E5
:1015080010C20771D71A630471D61C63042EC6185B
:10151800A3032FC61742002EC65893052FC617637C
:10152800042E0607A3039F1042080131C618A3031F
:1015380031C618150131C65AAB02312AA2620431EC
:101548002A4208011F2222C207278410C20120084C
:101558008220000E21849003444500000000000012
:10156800C00782200000000038E8A30721B419E36F
:101578000300B810A20310DA1CA30700B8F883030D
:101588004C8A238400C0C7E8A10321B4196304046A
:1015980018428803083084920121A4324A02861036
:1015A80042880300AC5A630400B419630400B818F5
:1015B800A30300BCF8420000D8EC210400B419428F
:1015C8000000B8E0E003421C21240300C418B3055E
:1015D80000C418150100C45AAB0200444554040065
:1015E800C4E8A103007C44C40788104108028410A1
:1015F800420801821044880000888A00000003061F
:10160800080A0340008003100380032000400020E4
:1016180000100008000400020001038003400320BA
:1016280000800310D0000847616D6520576F6E0079
:0A16380047616D65204F7665720072
:00000001FF
