:100000000C943A000C9457000C9457000C94570031
:100010000C9457000C9457000C9457000C94570004
:100020000C9457000C9457000C9457000C945700F4
:100030000C9457000C9457000C9457000C945700E4
:100040000C9457000C9457000C9457000C945700D4
:100050000C9457000C9457000C9457000C945700C4
:100060000C9457000C9457000C9457000C945700B4
:100070000C94570011241FBECFEFD4E0DEBFCDBFDC
:1000800011E0A0E0B1E0E6E7FBE002C005900D92D0
:10009000A435B107D9F721E0A4E5B1E001C01D9274
:1000A000AF36B207E1F70E94DD040C94B9050C9459
:1000B0000000E1E6F0E080E880831082A89584B734
:1000C000877F84BFE0E6F0E08081886180831082D2
:1000D00008951092800084E0809381001092850042
:1000E0001092840008958091840090918500089575
:1000F000AC0180918400909185009C01241B350BFC
:10010000283E3340B0F70895209184003091850057
:10011000820F931F0C947800853098F4673088F430
:1001200021E030E001C0220F6A95EAF7E82FF0E005
:10013000E75AFE4F922F9095808189234111822B9F
:1001400080830895853080F4673070F421E030E0DA
:1001500001C0220F6A95EAF7E82FF0E0E75AFE4F58
:100160008081282381E009F480E00895609158019E
:10017000E62FF0E0E75AFE4F80810E940401809153
:1001800058018F5F853018F48093580108951092BC
:1001900058010895E9E5F1E010821182128213827C
:1001A000148208950E94E2000C94CA009C01FC0194
:1001B000FF2784A1832B84A395A1892F832B85A35B
:1001C00081E00895CF93DF93CBE3D1E089919991BA
:1001D0000E94D60081E0C934D807C1F783E090E4DB
:1001E0000E94D60080E090E80E94D60083E090E173
:1001F0000E94D60083E090E80E94D60083E090E25F
:10020000DF91CF910C94D600E0915E01F0E0EE0F0B
:10021000FF1FEF5CFE4F20813181F901FF2795A17F
:10022000932B95A3EBE3F1E097E020813181D90195
:10023000BB2795962C91959780FF03C0309523237B
:1002400001C0232B95962C9386959150329691114F
:10025000ECCFE62FF0E0EE0FFF1FEF5CFE4F80814A
:100260009181FC01FF2785A19095892385A3609347
:100270005E0108956230710519F170F46130710505
:1002800059F5FC01FF2724A1392F3095922F932394
:1002900094A385A183231DC06330710541F06430B0
:1002A0007105D1F4FC01FF2784A1892B0FC0FC014B
:1002B000FF2784A1892B84A385A19095892309C058
:1002C000FC01FF2784A1292F2095822384A385A1E7
:1002D000892B85A381E0089580E00895E82FF0E060
:1002E000EE0FFF1FE15AFE4F8081882321F091819C
:1002F00081E0892702C080E090E081700895E82FB6
:10030000F0E0EE0FFF1FE15AFE4F8081811102C025
:10031000818102C080E090E081700895E82FF0E0D4
:10032000EE0FFF1FE15AFE4F80810895E82FF0E0A5
:10033000EE0FFF1FE15AFE4F908181E0892708955B
:100340007F928F929F92AF92BF92CF92DF92EF9265
:10035000FF920F931F93CF93DF93CFE5D1E059E442
:10036000C52E51E0D52E66E0762E88818983F60170
:10037000019111916F015801BB24F50124A1E12ED7
:10038000FF2485A190E08E219F2130E02E213F2186
:10039000232B31F0892B51F433E0832E912C0DC0A7
:1003A000892B41F488248394912C07C094E0892EF2
:1003B000912C03C082E0882E912C64E070E0C8018B
:1003C0000E943A0162E070E0C8010E943A01872D64
:1003D0008A95F1F7F50183A190E0E822F92281E006
:1003E000EF2809F080E08883B401C8010E943A0137
:1003F0002296F1E0C936DF0709F0B7CFDF91CF9140
:100400001F910F91FF90EF90DF90CF90BF90AF9032
:100410009F908F907F9008950895009789F0FC0138
:100420002381621B67FD09C0062E000C770B248117
:1004300030E081E0621773070CF080E0817008956E
:1004400080E00895CF93DF93FC01892B79F18181BE
:10045000481760F59281291748F59381A62FA91BAB
:10046000A7FD24C00A2E000CBB0BC481D0E0AC1742
:10047000BD07E4F4622F0E943B05480F858190E0A0
:10048000BD010E9444050696242F269526952695A3
:10049000E80FF91FE20FF11D808190E0477002C064
:1004A000959587954A95E2F7817001C080E0DF91CC
:1004B000CF910895CF93DF93EC010E9469009E01D4
:1004C00040E050E062E17AE780E090E00E94690558
:1004D00030936C0120936B01DF91CF91089580914F
:1004E000690190916A010E94780020916901309120
:1004F0006A0180916B0190916C01820F931F909320
:100500006A01809369010895692F0C94A20041E06B
:10051000611101C040E0692F0C948C000C9487029B
:100520005F926F927F928F929F92AF92BF92CF9283
:10053000DF92EF92FF920F931F93CF93DF93562E8C
:10054000872E942E5C01E62EF72EC62F660FDD0B4C
:10055000C81BD10987FDD395072F770F110B091BF6
:10056000110997FD1395D7FF03C077247A9402C031
:100570007724739417FF03C066246A9402C066242C
:100580006394D7FF03C0D195C195D10917FF03C06C
:10059000119501951109C017D107A4F06E01D594EA
:1005A000C794F92EA51411F1692D8A2D9F2D0E9453
:1005B0008702C01AD10AD7FE03C0CC0EDD1EF60C8E
:1005C000A70CF0CF6801D594C794E82EB81471F049
:1005D000692D8E2D9B2D0E948702CC1ADD0AD7FE35
:1005E00003C0C00ED11EE70CB60CF0CF692DC701B9
:1005F000DF91CF911F910F91FF90EF90DF90CF90FF
:10060000BF90AF909F908F907F906F905F900C9471
:100610008702FF920F931F93CF93DF93D82FF92E6A
:10062000162FC72F042F792F0E949002402F6D2F75
:100630007C2F8D2F9F2D0E949002402F612F7C2FA9
:10064000812F9F2D0E949002402F612F7C2F8D2F94
:100650009C2F0E949002DF91CF911F910F91FF90EC
:1006600008950E94CA00E0E0F1E0118A148608951E
:10067000DF92EF92FF920F931F93CF93DF93D82EC9
:100680007B01162F0F2D8091020190910301D0E084
:10069000019799F50F2D0D1BE0910801F0910901CB
:1006A0008181C0E0D817B8F48091080190910901C8
:1006B000FC012281C21768F42C2F4D2F6D2D0E9452
:1006C0002202682F8E2D8C0F902F0E948702CF5F01
:1006D000EBCFDF5FDFCFE0910801F091090182816C
:1006E000C81740F460E08E2D8C0F902F0E94870277
:1006F000CF5FF1CF015030C0DF5F1E2D1D0FE091A5
:100700000801F09109018181C0E0D817A8F4809117
:10071000080190910901FC012281C21768F72C2F72
:100720004D2F6D2D0E942202682F812F9F2D9C0F2F
:100730000E948702CF5FEBCFE0910801F0910901A1
:100740008281C81740F460E0812F9F2D9C0F0E948A
:100750008702CF5FF1CF1F5F812F902FDF91CF9165
:100760001F910F91FF90EF90DF9008950F931F93CB
:10077000CF938C01C0E0F80181918F01882341F073
:100780000E943803BC01CF5F853014F477FFF3CFAC
:100790008C2FCF911F910F9108950F931F93CF939B
:1007A000DF9310920C0140930D0110921001009103
:1007B0000801109109010115110509F449C09B01B7
:1007C000EC01F8018181609106017091070190E0D0
:1007D0000E944405BC0180910A0190910B010E9486
:1007E0005505CB016AE070E00E94440590930F012B
:1007F00080930E01309305012093040140E250E004
:10080000BE0181E191E00E94AA05809100019091D2
:1008100001010197E9F4FE0101900020E9F7319709
:10082000BF016C1B7D0BF80181818F5F0E943B052E
:10083000815020910201309103012130310511F0E6
:1008400095E001C097E0981718F48EEF809310019F
:10085000DF91CF911F910F91089520910201309166
:1008600003012130310511F070E001C076E04FEF57
:1008700060E00E94CD03089590E09093070180937B
:1008800006010895909301018093000108959093CB
:100890000301809302010895909309018093080158
:1008A000089580916D0190916E01019690936E0173
:1008B00080936D0120910E0130910F0182179307F3
:1008C00008F469C010926E0110926D01E0910C0164
:1008D000F0E0E050FF4F818981110AC080910D0145
:1008E000823008F458C0815080930D0110920C01A1
:1008F00080910C0190E0FC01E050FF4F2189222300
:1009000009F449C04091000150910101209110016A
:100910004115510521F04130510599F024C02111B4
:1009200022C060910401709105018F5E9E4F0E946C
:10093000B60390E0019790910C01890F80930C0110
:1009400012C0609104017091050140910201509123
:1009500003014130510511F4720F01C0621B8F5E1B
:100960009E4F0E94B603809110018F5F809310010B
:10097000082E000C990BE0910801F09109012181EA
:1009800030E0281739073CF41092100180910C01D7
:100990008F5F80930C010C94B600CF93DF93C0E07F
:1009A000D1E09B878A870E94D20084E190E09F83F8
:1009B0008E83DF91CF910C9431030E9459000E94E5
:1009C0000C028AEF90E00E945A028AEF90E00E94A7
:1009D000CD0492E09093570186E080935601909366
:1009E0005401809355010E946F020E94A00183E090
:1009F0000E946E01882339F08091570118161CF46B
:100A000081508093570181E00E946E01882339F064
:100A10008091570188301CF48F5F8093570182E0EA
:100A20000E946E01882339F08091560186301CF4B3
:100A30008F5F8093560180E00E946E01882339F019
:100A40008091560118161CF48150809356018091B4
:100A500056019091570190935401809355010E9443
:100A6000310361E080915401909155010E94870209
:100A70000E945104B8CF002480FD060E660F11F0CD
:100A80008695D1F7802D08950024552704C0080EBF
:100A9000591F880F991F009729F076956795B8F32D
:100AA0007105B9F7802D952F0895AA1BBB1B51E145
:100AB00007C0AA1FBB1FA617B70710F0A61BB70BCE
:100AC000881F991F5A95A9F780959095BC01CD0173
:100AD0000895052E97FB1EF400940E94800557FD93
:100AE00007D00E94880507FC03D04EF40C948005C3
:100AF00050954095309521953F4F4F4F5F4F08954A
:100B000090958095709561957F4F8F4F9F4F089579
:100B1000A1E21A2EAA1BBB1BFD010DC0AA1FBB1F01
:100B2000EE1FFF1FA217B307E407F50720F0A21B73
:100B3000B30BE40BF50B661F771F881F991F1A94E0
:100B400069F760957095809590959B01AC01BD010A
:100B5000CF010895FB01DC014150504048F0019065
:100B60000D920020C9F701C01D9241505040E0F79E
:060B70000895F894FFCF88
:100B7600000000000000140000000000000000005B
:100B8600000000000000000000000000000000005F
:100B9600000000000000000000000000000000004F
:100BA6000003400080031003800320004000200063
:100BB6001000080004000200010380034003200027
:040BC6008003100098
:00000001FF
