:100000000C943A000C9457000C9457000C94570031
:100010000C9457000C9457000C9457000C94570004
:100020000C9457000C9457000C9457000C945700F4
:100030000C9457000C9457000C9457000C945700E4
:100040000C9457000C9457000C9457000C945700D4
:100050000C9457000C9457000C9457000C945700C4
:100060000C9457000C9457000C9457000C945700B4
:100070000C94570011241FBECFEFD4E0DEBFCDBFDC
:1000800011E0A0E0B1E0EAEBF1E102C005900D92D1
:10009000AE35B107D9F721E0AEE5B1E001C01D9260
:1000A000AD37B207E1F70E94D9050C94DB080C9438
:1000B0000000E1E6F0E080E880831082A89584B734
:1000C000877F84BFE0E6F0E08081886180831082D2
:1000D00008951092800084E0809381001092850042
:1000E0001092840008958091840090918500089575
:1000F000AC0180918400909185009C01241B350BFC
:10010000283E3340B0F70895209184003091850057
:10011000820F931F0C947800853098F4673088F430
:1001200021E030E001C0220F6A95EAF7E82FF0E005
:10013000E15AFE4F922F9095808189234111822BA5
:1001400080830895853080F4673070F421E030E0DA
:1001500001C0220F6A95EAF7E82FF0E0E15AFE4F5E
:100160008081282381E009F480E0089560915E0198
:10017000E62FF0E0E15AFE4F80810E940401809159
:100180005E018F5F853018F480935E0108951092B0
:100190005E010895EFE5F1E0108211821282138270
:1001A000148208950E94E2000C94CA009C01FC0194
:1001B000FF2784A1832B84A395A1892F832B85A35B
:1001C00081E00895CF93DF93C5E4D1E089919991BF
:1001D0000E94D60081E0C335D807C1F783E090E4E0
:1001E0000E94D60080E090E80E94D60083E090E173
:1001F0000E94D60083E090E80E94D60083E090E25F
:10020000DF91CF910C94D600E0916401F0E0EE0F05
:10021000FF1FE55CFE4F20813181F901FF2795A189
:10022000932B95A3E5E4F1E097E020813181D9019A
:10023000BB2795962C91959780FF03C0309523237B
:1002400001C0232B95962C9386959150329691114F
:10025000ECCFE62FF0E0EE0FFF1FE55CFE4F808154
:100260009181FC01FF2785A19095892385A3609347
:10027000640108956230710519F170F461307105FF
:1002800059F5FC01FF2724A1392F3095922F932394
:1002900094A385A183231DC06330710541F06430B0
:1002A0007105D1F4FC01FF2784A1892B0FC0FC014B
:1002B000FF2784A1892B84A385A19095892309C058
:1002C000FC01FF2784A1292F2095822384A385A1E7
:1002D000892B85A381E0089580E00895E82FF0E060
:1002E000EE0FFF1FEB59FE4F8081882321F0918193
:1002F00081E0892702C080E090E081700895E82FB6
:10030000F0E0EE0FFF1FEB59FE4F8081811102C01C
:10031000818102C080E090E081700895E82FF0E0D4
:10032000EE0FFF1FEB59FE4F80810895E82FF0E09C
:10033000EE0FFF1FEB59FE4F908181E08927089552
:100340007F928F929F92AF92BF92CF92DF92EF9265
:10035000FF920F931F93CF93DF93C5E6D1E053E550
:10036000C52E51E0D52E66E0762E88818983F60170
:10037000019111916F015801BB24F50124A1E12ED7
:10038000FF2485A190E08E219F2130E02E213F2186
:10039000232B31F0892B51F433E0832E912C0DC0A7
:1003A000892B41F488248394912C07C094E0892EF2
:1003B000912C03C082E0882E912C64E070E0C8018B
:1003C0000E943A0162E070E0C8010E943A01872D64
:1003D0008A95F1F7F50183A190E0E822F92281E006
:1003E000EF2809F080E08883B401C8010E943A0137
:1003F0002296F1E0CF36DF0709F0B7CFDF91CF913A
:100400001F910F91FF90EF90DF90CF90BF90AF9032
:100410009F908F907F9008950895009789F0FC0138
:100420002381621B67FD09C0062E000C770B248117
:1004300030E081E0621773070CF080E0817008956E
:1004400080E00895CF93DF93FC01892B79F18181BE
:10045000481760F59281291748F59381A62FA91BAB
:10046000A7FD24C00A2E000CBB0BC481D0E0AC1742
:10047000BD07E4F4622F0E945406480F858190E086
:10048000BD010E945D060696242F26952695269589
:10049000E80FF91FE20FF11D808190E0477002C064
:1004A000959587954A95E2F7817001C080E0DF91CC
:1004B000CF910895CF93DF93EC010E9469009E01D4
:1004C00040E050E062E17AE780E090E00E9496062A
:1004D0003093720120937101DF91CF910895809143
:1004E0006F01909170010E94780020916F0130910E
:1004F00070018091710190917201820F931F90930E
:10050000700180936F010895692F0C94A20041E05F
:10051000611101C040E0692F0C948C000C9487029B
:100520005F926F927F928F929F92AF92BF92CF9283
:10053000DF92EF92FF920F931F93CF93DF93562E8C
:10054000872E942E5C01E62EF72EC62F660FDD0B4C
:10055000C81BD10987FDD395072F770F110B091BF6
:10056000110997FD1395D7FF03C077247A9402C031
:100570007724739417FF03C066246A9402C066242C
:100580006394D7FF03C0D195C195D10917FF03C06C
:10059000119501951109C017D107A4F06E01D594EA
:1005A000C794F92EA51411F1692D8A2D9F2D0E9453
:1005B0008702C01AD10AD7FE03C0CC0EDD1EF60C8E
:1005C000A70CF0CF6801D594C794E82EB81471F049
:1005D000692D8E2D9B2D0E948702CC1ADD0AD7FE35
:1005E00003C0C00ED11EE70CB60CF0CF692DC701B9
:1005F000DF91CF911F910F91FF90EF90DF90CF90FF
:10060000BF90AF909F908F907F906F905F900C9471
:100610008702FF920F931F93CF93DF93D82FF92E6A
:10062000162FC72F042F792F0E949002402F6D2F75
:100630007C2F8D2F9F2D0E949002402F612F7C2FA9
:10064000812F9F2D0E949002402F612F7C2F8D2F94
:100650009C2F0E949002DF91CF911F910F91FF90EC
:1006600008950E94CA00E0E0F1E0118A148608951E
:10067000DF92EF92FF920F931F93CF93DF93D82EC9
:100680007B01162F0F2D8091020190910301D0E084
:10069000019799F50F2D0D1BE0910801F0910901CB
:1006A0008181C0E0D817B8F48091080190910901C8
:1006B000FC012281C21768F42C2F4D2F6D2D0E9452
:1006C0002202682F8E2D8C0F902F0E948702CF5F01
:1006D000EBCFDF5FDFCFE0910801F091090182816C
:1006E000C81740F460E08E2D8C0F902F0E94870277
:1006F000CF5FF1CF015030C0DF5F1E2D1D0FE091A5
:100700000801F09109018181C0E0D817A8F4809117
:10071000080190910901FC012281C21768F72C2F72
:100720004D2F6D2D0E942202682F812F9F2D9C0F2F
:100730000E948702CF5FEBCFE0910801F0910901A1
:100740008281C81740F460E0812F9F2D9C0F0E948A
:100750008702CF5FF1CF1F5F812F902FDF91CF9165
:100760001F910F91FF90EF90DF9008950F931F93CB
:10077000CF938C01C0E0F80181918F01882341F073
:100780000E943803BC01CF5F853014F477FFF3CFAC
:100790008C2FCF911F910F9108950F931F93CF939B
:1007A000DF9310920C0140930D0110921001009103
:1007B0000801109109010115110509F449C09B01B7
:1007C000EC01F8018181609106017091070190E0D0
:1007D0000E945D06BC0180910A0190910B010E946C
:1007E0006E06CB016AE070E00E945D0690930F01F7
:1007F00080930E01309305012093040140E250E004
:10080000BE0181E191E00E947C08809100019091FD
:1008100001010197E9F4FE0101900020E9F7319709
:10082000BF016C1B7D0BF80181818F5F0E94540614
:10083000815020910201309103012130310511F0E6
:1008400095E001C097E0981718F48EEF809310019F
:10085000DF91CF911F910F91089520910201309166
:1008600003012130310511F070E001C076E04FEF57
:1008700060E00E94CD03089590E09093070180937B
:1008800006010895909301018093000108959093CB
:100890000301809302010895909309018093080158
:1008A0000895809173019091740101969093740161
:1008B0008093730120910E0130910F0182179307ED
:1008C00008F469C01092740110927301E0910C0158
:1008D000F0E0E050FF4F818981110AC080910D0145
:1008E000823008F458C0815080930D0110920C01A1
:1008F00080910C0190E0FC01E050FF4F2189222300
:1009000009F449C04091000150910101209110016A
:100910004115510521F04130510599F024C02111B4
:1009200022C060910401709105018F5E9E4F0E946C
:10093000B60390E0019790910C01890F80930C0110
:1009400012C0609104017091050140910201509123
:1009500003014130510511F4720F01C0621B8F5E1B
:100960009E4F0E94B603809110018F5F809310010B
:10097000082E000C990BE0910801F09109012181EA
:1009800030E0281739073CF41092100180910C01D7
:100990008F5F80930C010C94B600CF93DF93C0E07F
:1009A000D1E09B878A870E94D20084E190E09F83F8
:1009B0008E83DF91CF910C943103CF93DF93FC01B1
:1009C00090818181208931892230310531F120F4F3
:1009D000232B09F5815003C02330310501F197FD28
:1009E00020C095300CF090E087FD1DC087300CF0E2
:1009F00080E024853585D901AA0FBB1FAE0FBF1F2C
:100A0000215031091297121613067CF090838183CE
:100A1000DF91CF9108959F5FE2CF8F5FE0CF91503C
:100A2000DECF94E0E1CF86E0E4CFED01229748816C
:100A3000598111965C934E93E3CFFC0183E090E0E3
:100A40009587848786E090E09787868782E0808319
:100A500086E08183808191819383828395838483DF
:100A600061E00E9487020C945104FC018485958505
:100A7000863091051CF40196958784870895CF935D
:100A8000DF93EC0183E00E946E01882321F083E074
:100A900090E0998B888B81E00E946E01882321F081
:100AA00081E090E0998B888B80E00E946E01882322
:100AB00011F0198A188A82E00E946E01882321F0C1
:100AC00082E090E0998B888BDF91CF910895292F58
:100AD000861306C081E090E0271721F080E008959A
:100AE00080E090E00895CF93DF930E946C08D82FA8
:100AF000C92F0E946C08FC018D2F9C2F65E070E0CF
:100B00000E948206282FCF0167E070E00E948206D3
:100B1000982F822FDF91CF9108950F931F93CF933A
:100B2000DF938C01EB010E94730599838883F801A0
:100B30002485358590E080E00AC0508148815413B7
:100B400004C051814981541771F30196329682177E
:100B500093079CF3DF91CF911F910F91089561E06E
:100B6000FC01808191810C948702A4E0B0E0EBEB62
:100B7000F5E00C94B408FC010FB6F894809179016B
:100B800090917A01A0917B01B0917C0189839A8335
:100B9000AB83BC830FBE309721F080839183A28307
:100BA000B38369817A818B819C812496E2E00C94E5
:100BB000D00800D0CDB7DEB782E190E00E94D70622
:100BC0008C0190E080E00E94B505CB010E94710885
:100BD0000E9459008EE591E00E94CD040E940C0213
:100BE0008EE591E00E945A02C8010E941D05BE01D7
:100BF0006F5F7F4FC8010E948D05F12CE12C0E9490
:100C00006F020E94A0010E943103D12CC12CF80177
:100C100084859585C816D906CCF10E9451046701D8
:100C2000FFEFCF1ADF0A8FE5C81681E0D8062CF057
:100C3000C8010E94DD04D12CC12CCE0101960E9476
:100C4000AF05F60131967F01FEE5CF16F1E0DF0634
:100C5000B9F4C8010E94DD04F801908189819813DC
:100C60000DC091818A81981309C0BE016F5F7F4FCB
:100C7000C8010E948D05C8010E943505F12CE12CA8
:100C8000C8010E943F050E945104B9CFF601EE0F42
:100C9000FF1FE00FF11F61E0808191810E948702B8
:100CA0008FEFC81AD80AB3CF002480FD060E660F56
:100CB00011F08695D1F7802D08950024552704C0A2
:100CC000080E591F880F991F009729F07695679590
:100CD000B8F37105B9F7802D952F0895AA1BBB1B9A
:100CE00051E107C0AA1FBB1FA617B70710F0A61B2C
:100CF000B70B881F991F5A95A9F780959095BC014D
:100D0000CD01089597FB072E16F4009407D077FDC8
:100D100009D00E946E0607FC05D03EF4909581959F
:100D20009F4F0895709561957F4F0895052E97FB0D
:100D30001EF400940E94AD0657FD07D00E94B50630
:100D400007FC03D04EF40C94AD06509540953095B9
:100D500021953F4F4F4F5F4F089590958095709527
:100D600061957F4F8F4F9F4F0895A1E21A2EAA1BC6
:100D7000BB1BFD010DC0AA1FBB1FEE1FFF1FA2174B
:100D8000B307E407F50720F0A21BB30BE40BF50B48
:100D9000661F771F881F991F1A9469F760957095D1
:100DA000809590959B01AC01BD01CF0108950F93F3
:100DB0001F93CF93DF939C01029710F422E030E061
:100DC000E0917701F091780190E080E0B0E0A0E060
:100DD000309791F4009709F445C0821B930B84303F
:100DE0009105B8F58A819B816115710569F1FB0157
:100DF00093838283FE0111C040815181028113815E
:100E000042175307F0F04217530799F4109761F017
:100E100012960C93129713961C933296CF01DF9182
:100E2000CF911F910F91089500937701109378014E
:100E3000F4CF009719F04817590718F4CA01BD01FB
:100E4000EF01DF01F801C4CF90937801809377011F
:100E5000D1CFFE01E80FF91F2193319302979983B7
:100E60008883DCCF8091750190917601892B41F4C4
:100E700080913301909134019093760180937501B4
:100E80008091310190913201009741F48DB79EB766
:100E90004091350150913601841B950B40917501AD
:100EA000509176014817590708F0B8CF841B950B6D
:100EB0008217930708F4B2CFB9016E5F7F4F861790
:100EC000970708F4ABCF640F751F7093760160939A
:100ED0007501FA0121933193A1CFCF93DF939C0148
:100EE0000097E9F0FC01329713821282C0917701DA
:100EF000D0917801DE0190E080E02097A1F480811C
:100F00009181280F391F8091750190917601821788
:100F1000930709F067C0F0937601E0937501DF91C4
:100F2000CF910895DA01AE17BF0708F041C01296BD
:100F30004D915C911397CD014115510599F7DC0155
:100F40001396FC93EE9312974D915D91A40FB51FEC
:100F5000EA17FB0781F4208131812E5F3F4F240F78
:100F6000351FDC0111963C932E9322813381139619
:100F70003C932E931297B0E0A0E08A819B8100976A
:100F8000B1F5FE0181919191E80FF91F80917501F2
:100F9000909176018E179F0711F6109759F51092D0
:100FA000780110927701D0937601C0937501B7CF85
:100FB000B383A28340815181240F351FA217B30749
:100FC00071F44E5F5F4F2D913C911197420F531F6B
:100FD0005183408312962D913C9133832283009755
:100FE00009F0ADCFF0937801E093770198CFDE015F
:100FF000EC01C3CF13961C921E921297D4CFCF92BE
:10100000DF92EF92FF92CF93DF93CDB7DEB72A97AF
:101010000FB6F894DEBF0FBECDBF89879A87A9852A
:10102000BA858D919D910D90BC91A02D89839A8355
:10103000AB83BC83892B8A2B8B2B41F484E299ED03
:10104000ABE5B7E089839A83AB83BC8369817A81FE
:101050008B819C812DE133EF41E050E00E949606A8
:101060002D833E834F83588769837A838B839C8348
:1010700027EA31E440E050E00E948B086B017C01DC
:101080002CEE34EF4FEF5FEF6D817E818F8198857D
:101090000E948B08DC01CB018C0D9D1DAE1DBF1D78
:1010A000B7FF03C00197A109B048E985FA8580839D
:1010B0009183A283B3839F772A960FB6F894DEBFFD
:1010C0000FBECDBFDF91CF91FF90EF90DF90CF901B
:1010D00008950E94FF07089587E391E00E94FF07AB
:1010E0000895B0E0A0E08093370190933801A09379
:1010F0003901B0933A010895FB01DC0141505040A1
:1011000048F001900D920020C9F701C01D92415096
:101110005040E0F70895EE27FF27AA27BB2708C015
:10112000A20FB31FE41FF51F220F331F441F551FCB
:10113000969587957795679598F37040A9F70097EE
:1011400099F7BD01CF0108952F923F924F925F9280
:101150006F927F928F929F92AF92BF92CF92DF92C7
:10116000EF92FF920F931F93CF93DF93CDB7DEB72C
:10117000CA1BDB0B0FB6F894DEBF0FBECDBF0994C0
:101180002A88398848885F846E847D848C849B8417
:10119000AA84B984C884DF80EE80FD800C811B8125
:1011A000AA81B981CE0FD11D0FB6F894DEBF0FBE54
:0A11B000CDBFED010895F894FFCFC4
:1011BA000000000000001400000000000000000011
:1011CA000000000000000000000000000000000015
:1011DA000000000000000000000000000000000005
:1011EA000000007D01200001000000034000800390
:1011FA0010038003200040002000100008000400B3
:0E120A00020001038003400320008003100057
:00000001FF
